:020000040800F2
:1060000008100020718400086BFE02086BFE020875
:10601000D72B03086BFE02086BFE02086BFE02081A
:106020006BFE02086BFE02086BFE0208819C0308EF
:106030006BFE0208F8DE0308119C0308A3C70308DF
:10604000498800086BFE02086BFE02086BFE02081E
:106050006BFE02086BFE02086BFE02086BFE020874
:106060006BFE02086BFE02086BFE0208957D0008BD
:1060700027F902086BFE02086BFE02086BFE02089D
:106080006BFE02086BFE0208350E01086BFE02086B
:106090006BFE02086BFE0208019800086BFE020806
:1060A0006BFE02086BFE02080D920008ED910008DD
:1060B0006BFE02086BFE020805CD0108B5D701088A
:1060C0003B6503083765030875CF01085165030870
:1060D0003F65030885D701084365030819D80108FF
:1060E00055D801086BFE02086BFE02086BFE020821
:1060F0006BFE0208592503086BFE02086BFE0208BE
:106100006BFE02086BFE02086BFE02086BFE0208C3
:106110006BFE02086BFE02084DE202086BFE0208ED
:106120006BFE02086BFE02086BFE02086BFE0208A3
:106130006BFE02086BFE02086BFE02086BFE020893
:106140006BFE02086BFE02086BFE0208ADCE000873
:106150006BFE02086BFE02086BFE020879B60108AE
:106160006BFE02086BFE02082B650308316503080D
:10617000F0B5114A114C124E00F00105E3695F07BA
:1061800013D40DB9334213D103EA00078F4207D16C
:106190000B4A1A40002A0CBF00206FF00100F0BD2E
:1061A000013AEBD16FF00200F9E74FF0FF30F6E76C
:1061B0006FF00100F3E700BF8096980000000350E5
:1061C000020001000B4B70B5D96911F480310DD17B
:1061D00001244FF48072084E084DF46020462C6470
:1061E0001A61FFF7C5FF3464EC6070BD6FF0010009
:1061F000FBE700BF000003500010035000200350D5
:106200004FF4803238B50E4B0E4C9A66E56941F674
:10621000713315400122E3630B4B0021DA60022346
:10622000606121202361FFF7A3FF10B92120FFF750
:106230009FFF0122054BDA600DB10023E36338BDF7
:106240000090005000000350001003500020035045
:1062500070B5134C6061E3695B071ED40E4656F8B7
:10626000043B8D18A361AE420BD1042300212120F1
:106270002361FFF77DFF58B9BDE870402120FFF78B
:1062800077BF08210846FFF773FF10B1042323618D
:1062900070BD56F8043BA361E5E74FF0FF30F7E728
:1062A000000003502DE9F84315464FF48032184B97
:1062B00089469A6603F51C33DF690646174041F6A6
:1062C0007132DA63012203F58053DFF84C80DA6023
:1062D00055B9284601220F4BDA601FB10022A3F501
:1062E0000053DA63BDE8F88306F5005404EA0804B5
:1062F000A41BAC4228BF2C46494622463046FFF735
:10630000A7FF0028E6D12644A1442D1BE0E700BFEB
:10631000009000500020035000E0FFFF000000004C
:10632000000000000000000000000000000000006D
:10633000C174000826000100C57500082500010091
:1063400000000000FF000100A74503086C000100E9
:106350000100FF00FF00000000000000000000003E
:10636000000000000000000000000000000000002D
:1063700000000000020085000200000077360308DC
:10638000000000000000000000000000000000000D
:10639000733603086F36030802005900030000003B
:1063A000952001080000000000000000000000002F
:1063B00000000000112001080000000002008E0013
:1063C000030000007F370308000000000000000009
:1063D00000000000000000000000000000000000BD
:1063E0000300200002000000B73A0308000000008C
:1063F000000000000000000000000000000000009D
:10640000000000000300250002000000F12D01083B
:10641000773B03088D3B0308813B03080000000025
:10642000852C0108852C010802005A00010000009B
:10643000000000000000000000000000CD3C030848
:1064400000000000000000000000000002007A00D0
:1064500005000000C52F010800000000000000003A
:106460000000000000000000B12F0108B12F01085A
:1064700002008700030000000D3C0108000000003E
:1064800000000000573D030800000000000000006D
:10649000000000000200720002000000633D0308DB
:1064A00000000000000000000000000000000000EC
:1064B0000000000000000000030060000400000075
:1064C000D93D0308000000000000000000000000AB
:1064D0000000000000000000000000000300260093
:1064E00004000000013F0108E940030809410308D6
:1064F000F34003080000000049410308434103083A
:1065000002007100080000005D4203080000000066
:10651000000000005142030800000000754201081D
:10652000394201080200730001000000994501088A
:10653000000000000000000000000000000000005B
:10654000314501083D45010802009F0000000000A0
:10655000D744030800000000000000000000000015
:106560000000000000000000000000000200980091
:1065700000000000D74403080000000000000000F5
:10658000000000000000000000000000000000000B
:1065900002006C00010000005148010800000000EA
:1065A0000000000000000000000000000148010899
:1065B000014801080200860003000000594A010852
:1065C00000000000000000000000000000000000CB
:1065D000000000000000000002005E000200000059
:1065E000E345030800000000000000000000000078
:1065F0000000000000000000000000002500000076
:1066000034B1002025000000C0B0002025000000AB
:106610004CB0002026000000A8B10020710000004E
:106620005CB200207100000044B200207100000044
:106630002CB200207100000014B20020FF00000006
:10664000000000001800000069430208220000005A
:10665000B940020801000000618203080500000043
:10666000F13E020804000000C14502080B000000D2
:10667000194B0208250000005540020824000000C4
:10668000F53F020814000000C95102080C00000088
:10669000DD4C020816000000114102080300000052
:1066A0008152020802000000BF81030808000000B8
:1066B000594802082A000000714102082900000020
:1066C000F542020802000000B78103080100000043
:1066D0005B820308030000008D42020800000000F6
:0466E00067820308C2
:1066F000013800D0FCE770472DE9F04F93B0CDE9A9
:106700000A32DDE91C530E9353EC102BCDE908013E
:10671000104619468DED060B1E9E28F00DFA80B12D
:10672000DDE906014FF0FF32C54B28F02DFA40B9E4
:10673000DDE906014FF0FF326FF4801328F006FA0E
:1067400070B1DDE908019DED060B0E9B1E96CDE9AB
:106750001C53DDE90A3213B0BDE8F04F00F088B9F0
:106760000022DDE90601002328F0F0F9002800F0FE
:106770003381DDE906A303F1004BCBF30A5016F495
:106780008063A0F2FF3008BF06250F9327F002FFB9
:106790009BA3D3E9002327F067FF9BA3D3E9002342
:1067A00027F0ACFDCBF31304894644F07F518046BB
:1067B0000022A44B504641F4401127F09DFD94A3C4
:1067C000D3E9002327F050FF02460B4640464946D6
:1067D00027F094FD28F0E2F9044627F0DBFE8EA3B3
:1067E000D3E900238046894627F03EFF0022964BDE
:1067F00027F084FD28F0D2F989A3D3E900230746C6
:106800004946404627F030FF80463846894627F003
:10681000C1FE85A3D3E9002327F026FF02460B46DD
:106820004046494627F068FD02460B46CDE90C2359
:1068300027F01AFFDDE90C238046894610461946E9
:1068400027F05CFD0022CDE91001804B404649460F
:1068500028F034F800227E4B27F050FD02460B460C
:106860004046494628F02AF800227A4B27F046FD98
:1068700002460B464046494628F020F8DDE90C2345
:106880008046894600204FF0804127F035FD0246C2
:106890000B464046494627F031FD02460B46DDE9EE
:1068A000100128F00BF807F2FF3700226A4B27F09F
:1068B00025FD00223B0527F0D7FE52465B46804669
:1068C000894628F061F9002840F08980CDE90C89DB
:1068D00004F16303C72B34BF0427052731051BD5FB
:1068E00053A3D3E900235046594628F043F9002822
:1068F0007FD051A3D3E900235046594628F026F90A
:10690000002876D00027A542C6BF2C1B04F1FF3516
:1069100000253C4646F480660E9B9F422CBF4FF0FC
:106920000008A3EB070816F0020903D0002F18BFD8
:106930004FF000083CB1DDE90C235046594627F0E2
:10694000BDFF82468B46DDE906010022002328F0C8
:10695000FDF810B10BF100439B46DDE9080126F478
:106960000063CDE90183DDE90A324BEC10AB009501
:1069700000F07EF802465FB3DDE9091316F0200F40
:1069800000F10105089E0CBF65204520B047DDE9F8
:1069900008010523002205930A23002CCDE90232C9
:1069A00007F1FF374FEAD473B8BF64422A46019318
:1069B00004970A9B00942FF058F80246B9F1000F93
:1069C00006D00B9BC41A0B9B1A190E9BA34245D8E9
:1069D000104613B0BDE8F08FDDE906ABCDE600222E
:1069E000404649461A4B27F069FF013CCDE90C01AE
:1069F0006EE7002D90D00F9B002B8DD0013D8BE7D3
:106A0000FB799F501344D33FB3C8608B288AC63F9D
:106A100061436F63A787D23F71A379094F930A40FF
:106A20001655B5BBB16B0240EF39FAFE422EE63F78
:106A30002D431CEBE2361A3F0000000080842E41FB
:106A4000FFFFEF7F0000F83F0000E03F00002C4018
:106A500000002440000018400000F03F2020DDE945
:106A60000913089DA8470134ADE700BF00000000EE
:106A70002DE9F04F5BEC10AB97B0CDE90501DDE9F6
:106A80002057CDE90723504652465B465946229E81
:106A900028F052F870B90323CDE902760193B04B88
:106AA0000093DDE90501DDE907232EF0FEFE17B0B6
:106AB000BDE8F08F4FF0FF326FF480135046594617
:106AC00028F044F828B10423CDE902760193A54BC0
:106AD000E6E74FF0FF3250465946A34B28F054F8F2
:106AE00068B1A24A06F00403002B08BF0322A04BA2
:106AF0001CBF13460422CDE902760192D0E750462E
:106B000093A3D3E90023594628F03EF838B992A35D
:106B1000D3E900235046594628F018F868B1DDE95A
:106B20000723DDE905014BEC10ABCDE9217620957B
:106B300017B0BDE8F04FFFF7DFBD0022002350463D
:106B4000594628F003F8002800F09A805B46524628
:106B50000020002127F0D0FB012382468B460993B9
:106B600016F4806400F08E80092D40F28E8000249F
:106B700030210EABA5F109020134202C03F8011BD2
:106B8000A5EB040901D09442F6D15946504628F0AD
:106B900005F8784B054603EBC90393ED007B8DEDBB
:106BA0000A7B27F0F7FC02460B465046594627F071
:106BB000A3FBDDE90A2327F057FD02460B46CDE98A
:106BC0000C2328F013F8804627F0D4FC02460B462D
:106BD000DDE90C0127F090FB02460B46CDE90C23C2
:106BE0000022654B27F0D0FF002851D008F10108A2
:106BF000404627F0BFFC02460B46DDE90A0127F0BC
:106C0000AFFF10B14FF000080135B9F1000F50D1BE
:106C1000284627F0BFFC02460B465046594627F04F
:106C20006BFB0022544B8046894627F08FFF30B122
:106C3000002240464946504B27F0A6FF10B1E80716
:106C400000D501350A210EAB1A19202C0AD095FB6C
:106C5000F1F001FB1055303502F8015B01340546B7
:106C60000028F2D106F00302012A57D1002F55D097
:106C7000099A12B916F00C0F00D0013F302245E0FE
:106C800009906DE74FF006097FE7A94600247CE7ED
:106C90000022DDE90C01384B27F058FF0028B4D161
:106CA000B8F1000F02D018F0010FAED008F10108C2
:106CB000ABE70A210EAB2344202C0ED0B8FBF1F039
:106CC00001FB1082B8F1090F02F1300209F1FF391E
:106CD00004F1010403F8012B11D83021A1440EAABC
:106CE000202CAFD0A14504F101030AD11C4609F1C3
:106CF00058030DEB03092E2309F8203CA2E7804638
:106D0000DAE7A1541C46EBE71A550134A74205D92E
:106D1000202CF9D1CDE902760194C1E6202CF9D0DE
:106D2000099A3AB12D2104F158026A4402F8201C54
:106D30000134EFE7710704D504F158022B216A44AE
:106D4000F4E73207E6D504F1580220216A44EDE762
:106D50000000000065CDCD410000000065CDCDC133
:106D6000CDE50308D1E50308FFFFEF7FC4E5030885
:106D7000C9E50308D8E503080000E03F0000000073
:106D8000F7B50446007832F090FB18B1E3780BB108
:106D900032F001FF4E482FF03BFC002025F0C4FDEF
:106DA0004C4B002118604C4816F0D6FD4B4F8446E2
:106DB000386000B9FEE74A4E0FCC35460FC50FCC00
:106DC0000FC5102294E80300464B85E8030083F8C2
:106DD0001F23012183F82023604683F8212383F8B1
:106DE000222383F8232383F8242383F8252383F89D
:106DF000262383F8282383F8272383F84A2383F85C
:106E00004B2383F8472383F81E230FF099FC26F0C9
:106E100085F8B6F90A3000284AD0C82B01DDC8230E
:106E200073817378304A022B28BF02232F491372D3
:106E300038684FF4807300222FF022FD26F05AFDAF
:106E40000122386811462FF0A2FC1FA3D3E90023CA
:106E5000CDE9002338684FF0FF324FF0FF332FF0B9
:106E600094FC96F82000224C003818BF012026F030
:106E700055FDB6F90820B6F906103379307826F0BA
:106E8000FBFC1C4B5B68187826F060F80122386820
:106E9000114632F0AEFD00221546174925F022FFBB
:106EA000904209D834F0E0FB144B186003B0F0BDF9
:106EB0008C2BB6DD8C23B3E701F8015B24F8025B71
:106EC0000132EBE7AFF30080088D0155220200008C
:106ED000690345EC9C950020A4B50020B4B50020C2
:106EE000BC7F002000E100E0447F0020447E0020C1
:106EF00070980020B8B50020B9AB0020989500200C
:106F00000348044B834202D0034B03B11847704738
:106F100020B7002020B7002000000000064B0749E2
:106F2000C91A891048BF0131491003D0044B0BB175
:106F300001481847704700BF20B7002020B7002045
:106F40000000000010B5064C237843B9FFF7D8FFC6
:106F5000044B13B10448AFF300800123237010BD2C
:106F60007A98002000000000B44F040808B5054BD3
:106F70001BB105490548AFF30080BDE80840FFF7A5
:106F8000CDBF00BF0000000020190020B44F04084E
:106F9000A3F5803A704700BF174B002B08BF134B77
:106FA0009D46FFF7F5FF00218B460F461348144A14
:106FB000121A28F07CFB0E4B002B00D098470D4B8B
:106FC000002B00D098470020002104000D000D4840
:106FD000002802D00C48AFF3008000F013F9200025
:106FE000290028F047FC00F011F800BF000008005D
:106FF0000000000000000000081000200810002021
:1070000020AE0020000000000000000008B5064B84
:10701000044613B10021AFF30080044B1B6803B199
:10702000984720462BF0F7FA00000000701A002065
:10703000002310B504468360818119464366C281EE
:1070400008228361C0E90033C0E904335C3028F0D2
:107050002EFB0D4B246263620C4BA3620C4BE3626C
:107060000C4B23630C4B9C4206D003F16802944204
:1070700002D0D0339C4205D104F15800BDE8104045
:1070800028F01DBB10BD00BF29F602084BF6020810
:1070900083F60208A7F6020838190020024A0349BD
:1070A000034828F0A3BA00BFECAF0020CBF70208DA
:1070B000FCAF002041680C4B994210B5044601D04A
:1070C00028F083FBA168094B994202D0204628F0A2
:1070D0007CFBE168064B994204D02046BDE8104095
:1070E00028F073BB10BD00BF38190020A019002084
:1070F000081A002010B50B4B04210B4C0B4A2046FC
:107100001A600022FFF794FF04F1680001220921B0
:10711000FFF78EFF04F1D00002221221BDE81040DB
:10712000FFF786BF701A0020381900209D700008F4
:10713000014828F0C5BA00BF7B980020014828F01C
:10714000C0BA00BF7B98002010B50446FFF7F0FFDF
:10715000236A1BB1BDE81040FFF7F0BF044B236268
:10716000044B1B68002BF5D1FFF7C4FFF2E700BF0B
:10717000B5700008701A002038B50023054D04468C
:1071800008462B602BF045FA431C02D12B6803B153
:10719000236038BD741A002038B50446064D0846F1
:1071A000114600222A601A462BF03BFA431C02D1FA
:1071B0002B6803B1236038BD741A002038B504462B
:1071C000064D0846114600222A601A462BF02BFA7B
:1071D000431C02D12B6803B1236038BD741A002010
:1071E00038B50446064D0846114600222A601A4664
:1071F0002BF027FA431C02D12B6803B1236038BD62
:10720000741A002070B50D4D00260D4C641BA4109F
:10721000A64209D10B4D00260B4C36F061F9641BD8
:10722000A410A64205D170BD55F8043B013698471D
:10723000EEE755F8043B01369847F2E718B700200F
:1072400018B7002018B700201CB7002010B504465E
:1072500034F0BAFD21460AF0B7FD0121044A054881
:1072600009F062FE04202BF06FFF2CF0EFF8FCE732
:1072700079720008781A0020F7B5144C2378F3B916
:10728000012008211A462070012001901048114D5C
:10729000009028780DF00EF92778064647B92C782B
:1072A0000134E4B22C7028F0F5FA844228BF2F7024
:1072B00056B1722003B0BDE8F0400AF0BBBB00201D
:1072C00001230146044ADEE703B0F0BD7D980020AB
:1072D0001BF802087C980020BEB6002010B5037889
:1072E000C32B0DD103795BB90AF01CFE40B9054CE4
:1072F0002378012B04D004482FF050FC0123237085
:1073000010BD00BFBFB60020781A002013B50120C1
:1073100025F0E8F90DF094FC04460DF1070017F094
:107320000DF89DF807002CF069F968B19DF8073059
:1073300023720DF089FC022203460121054830F03A
:10734000E4FE002002B010BD04F108002FF0A2FB03
:10735000EFE700BF4D720008A0F1740373B5054656
:10736000062B0FD8DFE803F004141A21383351003C
:1073700000F00EFB04462CF065FCA0B10021204675
:107380002CF041FC284602B0BDE870400DF0EABD8B
:1073900000F0FEFA00F174042046ECE700F0F8FA81
:1073A00000F1E804F8E7FF21E9E700F0FFFA0446FE
:1073B0000CF09AFE20462CF00EFF024628B1002267
:1073C000114620462CF0C3FEDCE7FF21F9E700F070
:1073D000EDFA0CF089FED5E700F0E8FA0A23164C26
:1073E00001222168009300239942CCBF0021012192
:1073F0002CF0C5FE23685A1C02D101232360C1E78B
:10740000012BBFD14FF0FF33F8E70C4C2378012B51
:107410000CD100260A4B47F230510A481E702FF05B
:1074200072FB20703046FFF727FFABE705482FF0CF
:10743000B5FB01232370A5E748B00020BFB60020AC
:107440007D980020781A002010B5044610302BF0EB
:1074500044FC227B0346022A0AD0032A0AD0012ACE
:107460000ED1084A10683BB1BDE8104028F06CBE50
:10747000054AF7E7054AF5E7BDE8104028F076BE73
:1074800010BD00BF6CDE030854DE03083CDE0308B9
:1074900038B510302BF021FC074D04462B7823B96A
:1074A000064801F0AFFF01232B702146BDE83840AC
:1074B000024828F08FBE00BF7E980020A4B20020B2
:1074C000F0B589B00E7B05460C4600F06FFA037BE1
:1074D000B3422FD103AA1646344B03F1100C1746C2
:1074E00018685968083303C763453A46F7D11B88C3
:1074F000012D3B8020D0022D37D0DDB9032000F0D4
:10750000D9FDB8B12A4D2B4928682BF068F828F02E
:1075100024FA28F023FA0A23B4F85E20B4F85C10A9
:10752000B2FBF3F20092B1FBF3F332462249286832
:107530002BF055F809B0F0BD032000F0BBFD00288A
:10754000F8D01B4D1B4928682BF049F828F005FAA4
:1075500028F004FA0A23B4F85C201849B2FBF3F3CC
:10756000324628682BF03BF8E4E70A25B4F85C20A3
:10757000B2FBF5F305FB132292B2002ADAD1032005
:1075800000F098FD0028D5D0094F0A4938682BF043
:1075900026F828F0E2F928F0E1F9B4F85C30324638
:1075A000B3FBF5F306493868DCE700BF69D503088B
:1075B000881F002008D503080DD5030831D503081E
:1075C00051D50308F0B585B00E7B05460C4600F09A
:1075D000DFF9037BB34213D16A461746264B03F10A
:1075E000080C164618685968083303C663453246C6
:1075F000F7D118689B883060B3801DB1012D22D06F
:1076000005B0F0BDB4F85C20B4F85E309A42F7D013
:10761000032000F04FFD0028F2D0184D18492868CB
:107620002AF0DDFF28F099F928F098F9B4F85E10F7
:10763000144A154B002908BF13463A4613492868D7
:107640002AF0CDFFDCE7032000F034FD0028D7D07E
:107650000A4D0B4928682AF0C2FF28F07EF928F06D
:107660007DF9B4F85C10074A074B002908BF1346A0
:107670003A460749E3E700BFA1D50308881F002069
:1076800008D503087BD5030868DA03087FD503080B
:1076900092D5030810B5D0E9023253F82230187899
:1076A000012815D1032000F005FD60B1314C3249AD
:1076B00020682AF094FF28F050F928F04FF92F495C
:1076C00020682AF08CFF7420BDE810400AF0B2B99F
:1076D000022812D1032000F0EDFC60B1254C2649B0
:1076E00020682AF07CFF28F038F928F037F924497F
:1076F00020682AF074FF7520E6E7032811D100F016
:10770000D9FC60B11B4C1C4920682AF068FF28F0A6
:1077100024F928F023F91B4920682AF060FF76201D
:10772000D2E7042812D1032000F0C4FC60B1114C50
:10773000114920682AF053FF28F00FF928F00EF9BC
:10774000114920682AF04BFF7720BDE7012000F0A7
:10775000B1FC70B1074C0D4920682AF040FF28F0B9
:10776000FCF828F0FBF820680949BDE810402AF031
:1077700036BF10BD881F002008D50308AFD5030809
:10778000C3D50308D7D50308EBD50308FFD50308F5
:1077900004D6030838B5D0E9023253F822301C78F9
:1077A000632C12D9012000F085FC40B3144C15491C
:1077B00020682AF014FF28F0D0F828F0CFF82068CD
:1077C0001149BDE838402AF00ABF032000F072FCDE
:1077D00068B10B4D0D4928682AF001FF28F0BDF86B
:1077E00028F0BCF822460A4928682AF0F8FE00F082
:1077F000DDF82146BDE8384001222CF0DDBC38BD63
:10780000881F0020FFD5030817D6030808D50308F2
:107810002ED6030838B5164C03202378B3B100F0F8
:1078200049FC60B1134D144928682AF0D8FE28F0AD
:1078300094F828F093F8114928682AF0D0FE002324
:1078400023707A20BDE838400AF0F4B800F032FC2A
:1078500060B1084D084928682AF0C1FE28F07DF87B
:1078600028F07CF8064928682AF0B9FE0123E7E7EA
:107870007F980020881F002008D503084BD60308F6
:1078800079D6030838B5032000F014FC60B1154C1C
:10789000154920682AF0A3FE28F05FF828F05EF86A
:1078A000124920682AF09BFE00F072F82CF0CAF909
:1078B0000F4C104B002818BF1C46032000F0FAFBA9
:1078C00078B1084D084928682AF089FE28F045F863
:1078D00028F044F8224628680749BDE838402AF0D5
:1078E0007EBE38BD881F002008D50308A8D603082F
:1078F0007BD5030868DA0308C4D6030870B50320F3
:1079000000F0D8FB60B1174C174920682AF067FED9
:1079100028F023F828F022F8144920682AF05FFEA6
:1079200000F044F82CF057FC04462CF05DFC0546B2
:10793000032000F0BFFBA0B10A4E0B4930682AF0CB
:107940004EFE28F00AF828F009F8642314FB03F22D
:10795000B2FBF5F230680649D2B2BDE870402AF0B9
:107960003EBE70BD881F002008D50308D5D6030889
:10797000EAD603080048704700D7030805289DBFD2
:10798000024B03EBC00318790020704700D70308AF
:10799000004870474CB00020034A18B1431E02EB68
:1079A000430070471046704747D8030800487047A7
:1079B000A8B100200048704714B2002003289DBFE2
:1079C000034B00EB400003EBC0000020704700BFFA
:1079D00014B20020002310B5084A547B844204D11D
:1079E000147B8C4201D158B210BD0133042B02F13B
:1079F0001802F2D14FF0FF30F6E700BF14B20020BA
:107A00001822024B02FB0033587B704714B200204F
:107A10001822024B02FB0033587D704714B200203D
:107A20001822074B82B002FB00330020DB89DAB258
:107A300062F30700C3F3072363F30F2002B070471C
:107A400014B200201822024B02FB0033187B70474F
:107A500014B200201822024B02FB0033987D7047BD
:107A600014B200200023064A517B814206D0013324
:107A7000042B02F11802F7D1002070470120704753
:107A800014B2002018220A4B30B502FB013100234A
:107A90000C7DDAB2944202D84FF0FF3005E00D6958
:107AA0005A1CED5C854201D158B230BD1346F0E757
:107AB00014B200201822024B02FB0033187D7047DD
:107AC00014B200200246411E0620044B00FB013088
:107AD0000379934218BF0020704700BF10B6002002
:107AE000114B00B51868114B114A1860114B8BB03F
:107AF0001360114A00210092104A1268CDE9012357
:107B00000F4B4FF4C86203930E4B04930E4B059337
:107B10001923CDE906233223CDE90813694607F07E
:107B20005DF90BB05DF804FB80B20020082800204E
:107B30000428002074B200208BDD0308D81D00202B
:107B4000741D0020781D00200810002010B52A4C5C
:107B500003F0A6FF04F022F9236F012023F00703AE
:107B600043F00303236704F043F9244B01219B6A8C
:107B70003E20DB015EBF4FF48032214B9A62D4F885
:107B8000203123F0070343F00203C4F82031D4F876
:107B9000283123F0070343F00203C4F82831D4F856
:107BA000403123F0030343F00203C4F84031D4F81A
:107BB000603123F0030343F00203C4F8603103F0A3
:107BC000C9FCD4F84032002023F0030343F0020341
:107BD000C4F84032D4F8003223F0070343F0020324
:107BE000C4F80032D4F8083223F0070343F002034C
:107BF000C4F8083210BD00BF008000500040005A99
:107C00000060005A4FF480302549264A4B6E10B56B
:107C10005066486E4FF000414AF6CD345166224915
:107C200003F480334A6C0C6402F001024C6BE407ED
:107C3000FCD401241D494C60A1F500510C6BE407F4
:107C4000FCD50AB11A4A0A640028A2BF4FF00041CD
:107C5000184A51661BB94FF48032164B5A6607F02A
:107C600003FF00F037FB07F095FD2AF069FC07F0F1
:107C7000E1FD2AF06FFC07F0A5FDFFF767FF08F0B4
:107C80007FFB00F01BFB00F0A1FD32F0C3FF24F0EE
:107C900085FB03F0B1F8BDE8104008F00FBF00BF4E
:107CA00000800050009000500040095000600950D2
:107CB0003254FFFF00A00050064B1B681A7A022ABC
:107CC00004D812B11B68044A13607047032AF9D024
:107CD000704700BF84B20020D81D002030B5184D79
:107CE0008FB006AC0FCD0FC495E80F0084E80F00ED
:107CF0000E2200210DF10A0027F0D9FC4FF480126A
:107D0000104B6946CDE900230B238DF808300C2376
:107D10008DF809300C4B06AA03932023049301230A
:107D20000A488DF814300A4B07F0C6FF04460021BC
:107D30004FF4E13028F08AF820460FB030BD00BF84
:107D4000A4DD03083C00015B80980020181F002080
:107D5000DC1D002029B9074B186803684BB108F0F7
:107D6000CDBA022905D8034B186803680BB12AF075
:107D7000B5BE704798B2002008B50449044808F021
:107D800075FEBDE80840FFF7A9BF00BF9CB2002008
:107D9000401F002001482AF03BBC00BF181F0020F4
:107DA00042F2107307B500930023694603488DF82B
:107DB000043001F097FA03B05DF804FBA4B2002090
:107DC00008B5084828F03EF9074828F03BF907486D
:107DD00028F038F9064828F035F9BDE8084005488C
:107DE00028F030B924DE03080CDE0308F4DD0308B4
:107DF000DCDD0308C4DD030808B5084828F0A1F954
:107E0000074828F09EF9074828F09BF9064828F013
:107E100098F9BDE80840054828F093B99CDE0308AE
:107E200084DE03086CDE030854DE03083CDE03082E
:107E30002DE9F0410F4E306827F022FF0446B0B91B
:107E400005460D4FDFF8388057F8040B28F0FFF88F
:107E5000012803D134F096FC48F835000135052D92
:107E6000F2D10022054B30681A7027F01DFF204622
:107E7000BDE8F0815C1F0020ACB20020CFB600202E
:107E8000601F002000B5142289B00021194827F096
:107E90000EFC00210422184B01A819601971174B20
:107EA0001A711A731A751A7783F824201022196030
:107EB000996019619961196227F0F9FB29238DF8FE
:107EC00004300F4B4FF4806202930E4B0E49039324
:107ED00002238DF810304FF00513CDE90523082358
:107EE00001A8079327F07BFE08B12CF0EAFB09B04C
:107EF0005DF804FB481F0020A0980020601F0020B0
:107F00000D7F00082BF902085C1F0020F0B51F4F01
:107F100085B0386801AA02A927F013FF044690BB78
:107F20004FF4C870029D9DF80C6032F0EBFC854266
:107F300025D340F2DC50029D32F0E4FC854220D390
:107F400041F28830029D32F0DDFC854234BF0220D0
:107F500003200F4D05EBC60630710426297904294C
:107F600003D0E0B22CF0AEFB2E710134052C05F1EC
:107F70000805F3D1386827F097FE05B0F0BD20461C
:107F8000E7E70120E5E72CF09CFBF6E75C1F00200B
:107F9000601F00201A4B73B51C786CB9194B53F84D
:107FA000042B824227D128F052F80128164D05D122
:107FB00034F0E8FB45F8340002B070BD34F0E2FB69
:107FC00055F834308DF80440C61A2820009632F057
:107FD00099FC864204D805EBC4052B79052BEBD11F
:107FE0000A4B08226946186827F070FE0028E3D083
:107FF0002CF067FBE0E70134052CD0D1DCE700BFB3
:10800000CFB60020ACB20020601F00205C1F002013
:1080100038B5D0E9023253F82230074D1C78042CD1
:1080200028BF04242B5D33B934F0ACFB034B43F879
:10803000240001232B5538BDA0980020481F0020A4
:108040002DE9F041D0E9023253F82230DFF86080A8
:108050001C78042C28BF042418F80460012E12D1C7
:1080600034F090FB0027114B08F8047053F82450AB
:10807000451B4FF4C87032F045FCA84205D939467B
:1080800020462CF01FFBBDE8F08140F2DC5032F0BE
:1080900039FCA84201D93146F2E741F2883032F08A
:1080A00031FCA8428CBF02210321E9E7481F0020D0
:1080B000A09800200B4B02461B7883B10A4B1B781B
:1080C000834234BF00200120084B1B7833B1084B9A
:1080D0001B78134113F0010F08BF002070470120E7
:1080E000F2E700BFD2B60020D1B60020A59800204C
:1080F000D0B60020012208B5074B1A700022074BAA
:108100001A700422064B1A701F22064B1A7007F0D1
:108110002BFD054B186008BDD2B60020A5980020A5
:10812000D1B60020D0B60020881F002073B5846926
:1081300005462CBB08202AF008FDA86160B1046048
:10814000446021464FF6FF70AE6935F013F8706059
:1081500028B9284627F05FFC192002B070BDAA6834
:1081600001962B7907490848CB5CC2F34F02009374
:1081700021462B4635F09EF80128EAD12046ECE74F
:108180001220EAE7B4DE030879820008014827F0EC
:1081900000BF00BF8C1F0020037970B59B07054608
:1081A00002D41D4B1C6844BB1C202AF0CEFC0446A4
:1081B00080B32B7C012603712B7995F82020C3F323
:1081C000400343750023027583608361036140F8B7
:1081D0000C3B27F0DEFE95F820300BB10123237510
:1081E0006B69A26829469A4238BFA36004F10C006B
:1081F00027F0D6FE4EB9002070BD667D1EB92279EB
:108200002B7C9A42E7D02468CDE72146024827F02C
:10821000C7FEF0E71920EFE78C1F00200D4B70B56B
:108220001C6804B970BDA3690BB12468F9E7E36861
:1082300020462361FFF77AFF06460028F5D0E5685F
:10824000002DF2D0EB6813B13146002098472D681D
:10825000F6E700BF8C1F0020064B0246186800B9E5
:108260007047C3680BB90068F9E79342F8D01B6800
:10827000F8E700BF8C1F002010B5044627F08CFCE7
:1082800040B90D4B1A78A2B901221A7027F089FC67
:1082900027F0F9FA204627F01DFC0028FAD02046E6
:1082A00027F084FC0028F5D08368002BF2D0984793
:1082B000F0E727F076FCEDE7A698002008B5044823
:1082C0002AF040F927F0EAFABDE8084000F008B8C3
:1082D00044E3030801482AF035B900BF44E303082A
:1082E0002DE9F04F544E97B0354609AC0FCD0FC471
:1082F0002B6806F1140523600EAC0FCD0FC495E872
:108300000F00DFF84C8184E80F004C482AF01AF97E
:1083100040462AF017F94FF48073494FADF83C30CE
:10832000484B38460B9309A90EAB0D9304F018F88F
:108330000421B6F834B00DEB01000122ADF804B011
:1083400000F098FDB6F836A00022012102A8ADF891
:1083500008A000F08FFDB6F838900122042103A890
:10836000ADF80C9000F086FD758F0122042104A861
:10837000354CADF8105000F07DFD344B4FF4487093
:10838000C4F8F8344FF00213C4F8F434A3F5803382
:10839000C4F8FC341C23C4F8E43408F067FD08A8D2
:1083A000ADF8205000F0C4FD142008F05FFD08A8CF
:1083B000ADF8205000F092FD232008F057FD08A8EA
:1083C000ADF8205000F0B4FDB921384628F0E9FCA2
:1083D00008A8ADF8205000F081FD002205A8114644
:1083E000ADF814B000F046FD002206A81146ADF825
:1083F00018A000F03FFD0122002107A8ADF81C9055
:1084000000F038FD0122002108A8ADF8205000F04E
:1084100031FD384603F004FF00234046C4F8E4343D
:10842000C4F8F834C4F8F434C4F8FC342AF08DF8F5
:1084300017B0BDE8F08F00BFBCDE030844E30308BB
:1084400000000A50E070720000C0035002000300F8
:1084500048E303080348044A0449121A921027F01B
:1084600005BD00BF706100083063000820AE002029
:1084700008B500F02FF8FFF7EDFF124B12498B42C1
:1084800012D30020114B12498B4218D3FEF784FD02
:10849000186850F82240586840F822400132986825
:1084A0008242F5D30C33EAE70022F8E71C6844F86F
:1084B000220001325C68A242F8D30833E4E70022CC
:1084C000F8E700BFBC4F0408C84F0408C84F0408B1
:1084D000C84F04084FF48041124B134A70B59A609C
:1084E000D3F88820114D42F47002C3F88820104A56
:1084F00005F5005491664FF0FF3222660D4A626620
:108500000222C3F8D020BFF34F8FBFF36F8F4FF419
:108510004036002007F0F0FA0020E66007F0D0FABD
:108520002E6170BD00ED00E0006000080080004496
:10853000009000507FFF7F01054B1860054B1B6FBB
:1085400003F00703032B01D131F0CCBB704700BF10
:10855000CCB20020008000504FF000639B6A03F112
:108560007842B2F5C04F03D21968064A914203D04F
:108570000023037083607047012202709A689B6930
:108580004260F7E707B0CD5E024B034A1A6029F05C
:10859000E5BF00BF0000002002020FF073B54F4B93
:1085A00004461A781AB102221A7002B070BDCDE9E1
:1085B00000220028F9D001261E7033F079FF484DC3
:1085C000484B186011F070FF2B785BB902F014FC77
:1085D00040B945480823454A4549006802F0A6FAD3
:1085E00000B92E70434B5A6E62619B6E424AA36182
:1085F0004FF480439366414B5968E161404999606B
:10860000196E2160596E6160D3F87011A160196C08
:10861000E160596C21613B49086C1864496C5964EC
:10862000012151661B6E9C0441D5374AD368D80797
:10863000FCD4364B1A68531C3ED04FF48013934041
:10864000334A13664FF400730426314C26662366C2
:1086500027F06FFC01300DD027F06BFC40F20113C6
:10866000984207D04FF4005323664FF480432366AB
:10867000C4F870610823264C684623664FF4805383
:1086800023664FF0006323664FF4000301A963667D
:1086900027F0F9FB009B2366019B63662B78002B78
:1086A00083D0124B1A6822665B6863667DE7194ABD
:1086B000D368D907FCD4BCE7174B1B78002BC1D17A
:1086C0004FF400720C4B5A6603F5A6235B68002B2F
:1086D000B8D14FF480120E4B1A66B3E7A898002069
:1086E000A9980020B01F0020F4B20020B41F002081
:1086F000007108000080005000900050008000448D
:1087000055CEAC0000C0005400000440D0B20020A0
:108710000090004400000450A798002070B5224D3E
:1087200004462E78012E02D001232B7070BD002844
:10873000FCD027F0FEFB01300BD027F0FAFB40F213
:108740000113984205D0194B194A5E66D368DE07BB
:10875000FCD42268174B1A6662685A66A268C3F88E
:108760007021E2681A6422695A64E269D00744BF42
:1087700000229A60104B1A68013207D10F4A127812
:1087800022B90F494968C90748BF1A6062690D4B91
:108790005A66A2699A6611F08FFE0B4B186833F087
:1087A00082FE0023C1E700BFA8980020009000408F
:1087B0000000044000800044D0B20020A7980020B0
:1087C00000C0055000800050B01F0020F8B54FF0E9
:1087D0000066B36A03F17842B2F5C04F26D21A6838
:1087E000144B9A4222D1144D2C7814F0FD0402D07F
:1087F00000242046F8BD4FF480371048FFF7CEFE26
:10880000204607F079F90E4B2046DF6007F058F953
:108810000C4B1F61B36ADB69984704460748FFF7B2
:108820007DFF002CE5D101232B70E1E74FF481742B
:10883000DFE700BF07B0CD5EA7980020901F0020A3
:1088400000A000440090004413B5204B1B7803B9EE
:10885000FEE700231E4CCDE900336A4608231D497C
:10886000206802F063F9F8B91B4AD2F84031D2F817
:1088700040211F2B4FF0010311D9203A9340019A58
:108880001A43019208236A461249206802F00AF945
:10889000124B134A1A6029F061FE02B010BD9340DA
:1088A000009A1A430092EDE72D28F1D10A4AD2F836
:1088B0004031D2F840211F2B4FF0010385BF203AF1
:1088C00093409340019398BF0093DBE7A898002062
:1088D000F4B2002000710800008000440000002075
:1088E0000B020FF0B1F5002F0BD800F17843B3F570
:1088F000002F06D8044B084498428CBF002001206A
:1089000070470020704700BF0000080838B54FF0DE
:108910000065AB6A044603F17842B2F5C04F12D24B
:108920001B6B03F17843B3F5C04F0CD20648FFF739
:1089300035FEAB6A20461B6B5B689847BDE8384044
:108940000148FFF7EBBE38BDBC1F0020F8B54FF063
:108950000067BB6A164603F17842B2F5C04F044681
:108960000D4611D21B6B7BB10948FFF717FEBB6A9E
:1089700020461B6B324629465B6A984704460448EA
:10898000FFF7CCFE2046F8BD4FF40174FAE700BFB4
:10899000BC1F002070B54FF00066B36A044603F1B7
:1089A0007842B2F5C04F0D4614D21B6B03F17843E9
:1089B000B3F5C04F0ED20948FFF7F0FDB36A204669
:1089C0001B6B29469B6A984704460448FFF7A6FE9E
:1089D000204670BD4FF40174FAE700BFBC1F0020B1
:1089E000F0B58FB0044601A80E461546FFF78EFF7E
:1089F0009DF80C30012B1AD129462046FFF772FF53
:108A000098B940F2024420460FB0F0BDE25801325E
:108A10002AD104339D42F9D82A463146204600F037
:108A2000C5F80028EDD00024EDE70023F2E74FF071
:108A30000067BB6A03F17842B2F5C04F17D21B6BD7
:108A400003F17843B3F5C04F11D20A48FFF7A6FDF2
:108A5000BB6A2A461B6B314620469B6B98470446EF
:108A60000448FFF75BFECEE740F20344CBE740F259
:108A70000114C8E7BC1F002070B58EB0044601A8E1
:108A80000D46FFF743FF9DF80C30012B1ED144EA41
:108A90000503C3F30C03002B34D129462046FFF70E
:108AA00021FF20B940F2024420460EB070BD25449B
:108AB000204604F5005400F06BF8AC4202D00028C8
:108AC000F6D1EFE70028EDD00024EDE74FF0006687
:108AD000B36A03F17842B2F5C04F16D21B6B03F1B3
:108AE0007843B3F5C04F10D20948FFF757FDB36A7A
:108AF00029461B6B2046DB6B984704460448FFF76A
:108B00000DFED1E740F20444CEE740F20114CBE77A
:108B1000BC1F002030B591B0044603A8FFF7F6FE55
:108B20009DF81430012B10D1069BA34228D9204672
:108B300001A927F0C4F9044620B9DDE90101FFF7D6
:108B40009BFF0446204611B030BD4FF00065AB6A74
:108B500003F17842B2F5C04F15D21B6B03F1784395
:108B6000B3F5C04F0FD20948FFF718FDAB6A204696
:108B70001B6B5B69984704460448FFF7CFFDE1E7AC
:108B800040F20144DEE74FF48174DBE7BC1F0020B4
:108B90004FF4803208B5044B9A6634F0B1FCB0FA59
:108BA00080F0400908BD00BF00900050134610B58A
:108BB00062B103439B070BD14FF48034054B9C6695
:108BC00034F09AFCB0FA80F0400910BD0120FCE7B7
:108BD0000020FAE700900050BFF34F8F0549064B85
:108BE000CA6802F4E0621343CB60BFF34F8F00BF4B
:108BF000FDE700BF00ED00E00400FA0570B5D0B15C
:108C0000C9B10E4E431E013913F8014F2046325DA3
:108C100002F00302012A11F8012F08BF04F120001D
:108C2000B55C05F00305012D08BF2032801A01D183
:108C3000002CE9D170BD0120FCE700BFB24E040852
:108C400040B1054A1378012B04D80370013300208A
:108C50001370704701207047AA98002030B505684E
:108C600087B0AB8804461848ADF80C3029F06AFC90
:108C70000022012103A800F0FDF80DF10B0103A86B
:108C800000F0AEF99DF80B3083F001032B70AB7947
:108C9000022B15D14FF0FF330022CDE9043304A994
:108CA0000A4B009403A800F04DFA049B0094013392
:108CB0000CBF04220122054B05A903A800F0BEF950
:108CC000002007B030BD00BF44E30308590003088B
:108CD000002307B52948019329F034FC4FF4407371
:108CE000012204216846ADF8003000F0C3F80122EB
:108CF000234B0520C3F8442401A933F091FC00283C
:108D000039D1204BD3F8F02042F00102C3F8F02013
:108D1000D3F8FC2042F08072C3F8FC201A4AA3F575
:108D20005D431A60019B194A03F5D52303F2FC4306
:108D3000B3FBF2F3164A013B13610223C2F8F03091
:108D40004FF48073C2F804334FF06043114AC3F804
:108D5000B02F114AC3F8802ED3F8002E42F480724F
:108D6000C3F8002EFF2283F82020D3F8002E22F42F
:108D70008072C3F8002E03B05DF804FB44E30308DF
:108D800000D0035000ED00E0FF030040F8590D0053
:108D9000000004E055CEACC5090001004FF060436F
:108DA000D3F8802E30B5D20715D501240B4D844061
:108DB000D5F8FC2042F08072C5F8FC20D3F8002ED4
:108DC0002243C3F8002E53F82020002AF0D003F8E5
:108DD0002010002030BD1120FCE700BF00ED00E0B6
:108DE0002DE9F04104460C254FF00108124E0CB35A
:108DF00014F001000BD0002024F0010405FB0062F8
:108E00005768002FF3D09168C0B2B847EFE7224609
:108E1000013020284FEA520201D0D307F8D508FAD2
:108E200000F20F2824EA0204E8D9103805FB00629A
:108E3000B432E5E7BDE8F081DC1F002008B50C483E
:108E400029F080FB1A2006F049FE28B11A2006F00E
:108E500053FE1A2006F034FE1B2006F03FFE28B118
:108E60001B2006F049FE1B2006F02AFE002008BD4C
:108E700044E303082DE9F0410E461746054618B3B2
:108E80000F2923D80378E3B1013BDBB2022B1DD8B5
:108E9000104A32F813306A78D340DB0716D50E4BF0
:108EA000D3F81043A4B933F003FB80463A46284672
:108EB000314603F015FE404633F0F5FA2046BDE892
:108EC000F08140F2FF73E6E72224F7E72124F5E77B
:108ED0000224F3E748DF030800C0035010B504463E
:108EE000E8B10378C3B1013BDBB2022B19D80E4ABB
:108EF00032F813306278D340DB0712D533F0D8FA5A
:108F00000122637821789A4030235943074B5A5005
:108F100033F0C9FA002010BD40F2FF73EAE72220C7
:108F2000F9E72120F7E700BF48DF030840D00350EE
:108F300010B50446E8B10378C3B1013BDBB2022BA4
:108F400019D80E4A32F813306278D340DB0712D5B5
:108F500033F0AEFA0122637821789A4030235943E6
:108F6000074B5A5033F09FFA002010BD40F2FF73B8
:108F7000EAE72220F9E72120F7E700BF48DF0308EE
:108F800040E0035038B50D46044618B311B30378DA
:108F9000EBB1013BDBB2022B1ED8104A32F8133082
:108FA0006278D340DB0717D533F082FA302223787A
:108FB000534303F1A04303F570331B6C6278D34035
:108FC00003F001032B7033F06EFA002038BD40F23D
:108FD000FF73E5E72220F9E72120F7E748DF0308E0
:108FE00038B50D46044618B311B30378EBB1013B15
:108FF000DBB2022B1ED8104A32F813306278D3400D
:10900000DB0717D533F054FA30222378534303F1AA
:10901000A04303F570335B6C6278D34003F0010327
:109020002B7033F040FA002038BD40F2FF73E5E7C3
:109030002220F9E72120F7E748DF03082DE9F04176
:109040000D46164698460446002852D0002950D0B6
:109050000378002B43D05A1ED2B2022A03D9FF2B29
:1090600008D0212043E0244B33F812304278D3401B
:10907000DA07F6D5022E01D9042EF2D133F018FA10
:1090800023780746FF2B05D032462046296803F097
:109090006DFD28602B68013309D12378FF2B06D1A1
:1090A000164B6078D3F8241427F097FF28602968BE
:1090B0004B1C18D00C23124A03FB0122069BC2F85A
:1090C000048093602378FF2B04D001230D4A8B404A
:1090D000C2F82434384633F0E6F9002007E040F2C5
:1090E000FF734278C3E7384633F0DDF92D20BDE841
:1090F000F0812220FBE700BF48DF030800C00350D7
:10910000DC1F002000D003500F2810B5044613D8F0
:1091100033F0CEF90123094AA340C2F82034C2F843
:1091200024340C22064B02FB04330024C3E901441F
:1091300033F0B9F9204610BD2120FCE700E00350D0
:10914000DC1F00202DE9F0410D4690461F460446E5
:10915000002843D0002941D00378002B34D0591E79
:10916000C9B2022903D9FF2B08D0212034E01C4BBF
:10917000427833F81130D340DA07F6D533F098F956
:1091800023780646FF2B05D042462046296803F087
:1091900073FD28602A68531C1AD00C23114903FB65
:1091A0000211069BC1F8B870C1F8BC302378FF2BC0
:1091B00005D00123103293400B4AC2F824343046C4
:1091C00033F071F9002007E040F2FF734278D2E7F4
:1091D000304633F068F92D20BDE8F0812220FBE70E
:1091E00048DF0308DC1F002000D0035008B503F05F
:1091F0005DFC054B00F0553020F05020C3F82004F2
:10920000BDE80840FFF7ECBD00E0035008B503F0EF
:109210004DFC054B00F0AA3020F0A020C3F820043C
:10922000BDE80840FFF7DCBD00E0035013B504467D
:109230000A4829F087F9A2780421B2FA82F2237849
:1092400052098DF8043063780DEB01008DF805307C
:10925000FFF710FE002002B010BD00BF44E303087A
:10926000144B98421AD008D8A3F5004398420CD06A
:1092700003F5804398420DD070470F4B984211D0B0
:1092800003F58043984211D070470C4B0B600C4B98
:10929000136070470B4B0B600B4BF9E70B4B0B60EC
:1092A0000B4BF5E70B4B0B600B4BF1E70B4B0B60DC
:1092B0000B4BEDE7000005500040055040E303086C
:1092C00084E303083CE3030878E3030838E3030876
:1092D0006CE3030834E3030860E3030830E30308A6
:1092E00054E3030830B504460D468DB002AA01A927
:1092F0000068FFF7B5FF019829F024F9384829F0F4
:1093000021F963792A798DF80030003AA37918BFE2
:109310000122042168468DF80130FFF7ABFD0D22D4
:10932000002104A826F0C3F902238DF811302D4B3B
:10933000217905932B7920685A1E5342534104AA80
:109340008DF81A3027F099FD2268274B9A423ED0BB
:1093500003F580439A423CD003F580439A423AD0C9
:1093600003F580439A4238D020482149A3F5BC3305
:10937000A3F59273824208BF0B46A07962792179E6
:1093800042EA004243F82120029B03A9187933F0F6
:1093900047F92A68039B2568B3FBF2F3013B2A6B6C
:1093A000EB612379002405EB43132A6B21460F223E
:1093B0009C660DF1210026F07AF90123284608A9C0
:1093C0008DF8203027F018FD20460DB030BD094B38
:1093D000D3E7094BD1E7094BCFE7094BCDE700BFF6
:1093E00044E303080001030000800450008005509E
:1093F0007CC70350FCC603501CC703503CC7035036
:109400005CC70350012301790268134803FA01F194
:1094100082421AD000F5804082420DD00F4B9A4212
:1094200015D003F580439A4213D003F580439A4246
:1094300014BF4FF0FF33042341F2F8625B0103F1E4
:10944000A04303F57033995070470023F4E70223DB
:10945000F2E70323F0E700BF00800450000005504E
:109460002DE9F04F9A46564B85B01B7806460F46BD
:109470001546DDF83C909DF844B0DDF85080002B97
:1094800000F09780072A00F296800E9B002B00F0D8
:109490009280B9F1000F00F08E80129BB3F5006F3F
:1094A00000F38980012803D1109B002B00F08380FA
:1094B000444B03EB05131B7B002B7ED0424C102248
:1094C0000021684626F0F3F804EB45141022A7BBF0
:1094D0003946204626F0EBF843F210036380BBF1D7
:1094E000000F03D1E37843F00303E370364A0E9B89
:1094F00002EB451CCCE90193129B6901581E9DF8B3
:109500004C30C0F30A0003F003039B0643EA001E3D
:1095100053582E48012E00EA03004EEA0003CDF80E
:1095200000A0535017D0B8F1000F2ED19CF8023094
:1095300068F304138CF8023027E00021204626F05F
:10954000B6F84FF444736380BBF1000FCED1E378DB
:1095500043F03003C9E713230CF1100ECCF80C30A4
:109560009CE80F008EE80F006FF00301DCF81C2070
:10957000109B61F39F02012FCCF81C20CCF8143013
:1095800003D1CCF81890CCF8043000270D4A2901FB
:1095900002EB051342F80180159A28465A60694685
:1095A00022469F605E7303F045F9384605B0BDE87A
:1095B000F08F0748FAE70748F8E70748F6E700BFE3
:1095C000AB98002044220020442100200F80FFF3AC
:1095D000028000F0018000F0078000F038B5124BE7
:1095E00005461B78DBB1E0B132F062FF0F4A002381
:1095F0001146147B54B92B6001251A0101EB0313AA
:109600001D738C5032F04FFF204638BD0133082BBC
:1096100002F11002EDD132F046FF0548F5E70548AA
:10962000F3E70548F1E700BFAB9800204422002093
:10963000048000F0028000F0018000F038B532F0C4
:1096400037FF002305460B4A147B6CB90133082B06
:1096500002F11002F8D103F099F8074B28461C706C
:1096600032F021FF204603E0284632F01CFF034879
:1096700038BD00BF44220020AB980020058000F0D8
:109680000D4B10B51B78044693B1072812D832F061
:109690000FFF0A4B03EB04131A7B2AB100241C733F
:1096A00032F001FF204610BD32F0FDFE0448FAE71B
:1096B0000448F8E70448F6E7AB980020442200206D
:1096C000068000F0028000F0018000F0154B13B519
:1096D0001868002301908DF8043032F0E9FE124B37
:1096E0001C7824B132F0DFFE104802B010BD012218
:1096F0001A7032F0D8FE0E4B01A81C731C7783F849
:109700002C4083F83C4083F84C4083F85C4083F85D
:109710006C4083F87C4008238DF8073003F05AF83A
:109720002046E2E74EDF0308AB980020038000F0FC
:1097300044220020F8B50D4D2D7885B1072810DCA6
:109740000B4D060105EB0014277B67B1AB510025DB
:10975000069BA560636003F06DF82846F8BD0548D8
:10976000FCE70548FAE70548F8E700BFAB9800209A
:1097700044220020028000F0018000F0078000F009
:109780000A4A08B512785AB107280BD8084A02EBE2
:1097900000131B7B43B1002103F00EF8002008BD2D
:1097A0000448FCE70448FAE70448F8E7AB980020CF
:1097B00044220020028000F0018000F0078000F0C9
:1097C0000A4A08B512785AB107280BD8084A02EBA2
:1097D00000131B7B43B1012102F0EEFF002008BD06
:1097E0000448FCE70448FAE70448F8E7AB9800208F
:1097F00044220020028000F0018000F0078000F089
:10980000184B2DE9F0411F6D5B6D1F4000D5FEE741
:1098100001260025144CDFF85880374218D0236801
:10982000C8F85060A3B1A168284601316268A16000
:109830009847637B012B0BD150B90C4B03EB4513BD
:109840001A7B60F341021A731A7F60F341021A77A0
:109850000135082D4FEA460604F11004DDD1BDE8BC
:10986000F08100BF00000450442200204421002069
:10987000002004502DE9F04F144606460D469B4645
:10988000C36B87B001225B6902A960689847F36BDC
:1098900001225B6903A92846984702A827F00EF920
:1098A000074648B10023A37563754FF0FF33A360EB
:1098B000002007B0BDE8F08F03A827F00CF90123C2
:1098C000A375237E04EBC303DD611F846368AB4291
:1098D0000ED1206003A827F020F94FF0FF33207548
:1098E000A360237D043B022B26D80023A375DFE76A
:1098F00023681A1A53425341A37503A827F00DF9A0
:10990000237D834218BFA77503A827F0E8F8074610
:1099100002A827F0E4F8874218BF002303A818BF65
:10992000A37527F0E4F8074602A827F0E0F887427D
:109930001CBF0023A375D4E703A827F0D0F880B19B
:10994000F36B022228465B6904A9984704A827F014
:10995000D5F80346207D032839D8DFE800F03838F1
:10996000040903A8F3E7CC22237E04EBC3031A8483
:1099700001F0BAFA109B187003A8277E27F0A3F80D
:1099800004EBC70787F82200237E03A804EBC30378
:10999000B3F8209093F8227027F0A1F8804603A82E
:1099A00027F0A5F88246B8F1000F15D0F36B02221C
:1099B00028465B6904A9984704A827F064F86075F5
:1099C000637D6BB90023A3754FF0000838E0227E59
:1099D00004EBC2021384CBE703A827F03FF8EEE7BD
:1099E00094F81680B8F1000FEED0B9F1000F09D14C
:1099F000DFB10123627EE375002A44D19F4218D172
:109A0000677614E0736C05EB0A02594285EA02009E
:109A100008421CBF0021A175591E0A409B1A994596
:109A2000D0D8A37D002BE3D1CEE7E37D43B94FF03F
:109A300000084B4652462946304626F027FDA060D6
:109A4000A27D12B123694B4423611449237E097816
:109A500099421ED901332376BBF1000F1BD0D2B13E
:109A6000E37DC3B1B8F1000F15D1032F13D0A16866
:109A70004B1C10D0109B2246009330460123FFF769
:109A8000F9FEA07507E0012FDAD0032F08BFA376F7
:109A9000CDE70023A375A07D0BE700BF74DF0308AB
:109AA0002DE9F04F0E46984600238BB004464FF048
:109AB000FF31104617468DF8133001F0FFF9B6F567
:109AC000801F3BD3B21C53D1E56A6B1C57D1204693
:109AD000616A26F021FC0546B31C18BF0123DFF89C
:109AE00010910193636A626C0293236805A902FBDB
:109AF000053AE36B05225B695046984705A827F0B5
:109B000078F827F09BF8504627F0A3F84FF0000BA9
:109B1000824601464B1C05D0636C81EA0A025B4217
:109B2000134232D02946204626F0F6FB029BAB4278
:109B30004DD0BBF1000F4DD10546D3E7314605AA04
:109B400004F1080026F008FF0146481C10D03846F2
:109B500001F0B4F90122394620460DF1130326F035
:109B6000E7FC28B19DF8133088F80030002003E0AE
:109B7000237C002BA8D12D200BB0BDE8F08F2368EB
:109B8000ED1A636CB5FBF3F5A6E7484601F096F9CC
:109B90000DF1130349462046019A26F0C9FC0346FD
:109BA00090B1B21C03D0D9F80020B2420CD19DF87C
:109BB000132003930D4B88F8002049461A68384655
:109BC0002FF0D7FE039B9B46D9F80810A2E7BBF104
:109BD000000FD0D0B6F5801FC8D2314698F80030BB
:109BE0007A6804F1080001F097F8BFE770DF030816
:109BF000182600202DE9F3410446174698460E46E4
:109C0000194D816AE36A8B422AD04B1C18E0284622
:109C100001F054F90122294620460DF1070326F0F0
:109C200087FC30B14346294620469DF80720B847B7
:109C3000B0B1A9684A1C05D0012E0AD0E36A994246
:109C4000E5D10DE06968204626F0F3FB012E0146C0
:109C5000D8D16B6881EA0302636C5B421A42D1D0AF
:109C600002B0BDE8F08100BFEC2500202DE9F041F5
:109C7000036B9046826B07689A4288BF8363426C8D
:109C8000436A90B002FB0377C36B0E46052201A91D
:109C90005B6904463846984701A826F0AAFF0128C8
:109CA0000146307057D0656CE26B2368606AD2F869
:109CB00014C005FB0030052206A9E04706A826F0DF
:109CC00098FF01284FF0000523D0D4E90A32012182
:109CD0009342CDE90B458DF834800E958DF83C10FC
:109CE0002AD11946204626F0A4FB236B626C14335C
:109CF0009B1AE06223630C9B53B99DF83C303BB147
:109D0000626A616C2368E06B01FB023126F029FF77
:109D10000C9DE36B05225B6901A93846984701A8B1
:109D200026F067FF30702846236BA26B9A4288BFEB
:109D3000A36310B0BDE8F081237C33B91C490BAAA2
:109D400004F1080001F036F8D5E72046194A0BABBC
:109D5000FFF750FFCFE7237C23BB2246164904F1CF
:109D6000080001F027F8616A204626F0F6FA616AD9
:109D7000421C204626F0BFFA054620B9236B626CD0
:109D80001344143B23632046A16A26F052FB236848
:109D9000A062C01A636CB0FBF3F06062204626F04C
:109DA0008BFBB6E700232046044AFFF723FFDAE7E0
:109DB00081A50008FDA40008B9050308550503089E
:109DC00073B50D46D11E4A421C461B7E4A419A423B
:109DD00026D129682368994222D3636899421FD803
:109DE000114E0DF107033246FFF75AFEC0B97268F3
:109DF0006B689A4214D19DF80730DA1E53425341E2
:109E0000227E93420CD1636901336361D4E9032359
:109E1000934205D22968A26842F8231001332361D6
:109E2000012002B070BD00BF442600202DE9F04F94
:109E30009A468BB09DF85030DFF850B10293DBF8B2
:109E40001030804653450D461646C0F09980D146E5
:109E5000DBF804300193B9F1000F00F08D80D8F8E1
:109E60003C3001225B6907A90198984707A826F0B2
:109E700032FEDBF80030984240F0858007A826F0DB
:109E800036FE0428074614D107A826F037FE019BAA
:109E9000029A04463B44002A3FD1864212D9144616
:109EA000361A4046019926F0C4FAA9EB040901903C
:109EB000D1E7D8F83C3002225B69019808A998479D
:109EC00008A8E2E7841B544528BF5446032C03EB43
:109ED0000607AAEB040A4FEA94021CD9D8F83C30D2
:109EE000294638465B69984724F0030304F00306CB
:109EF0001F441D44002ED4D0D8F83C3001225B69A9
:109F000008A9384698473246284608A935442FF014
:109F100030FD0026C5E72646ECE7074600F00302C1
:109F2000039203442A1804920593049BDD1B059BAE
:109F3000D81B039B9F420FD1002FB2D0D8F83C30E2
:109F4000012208A95B6998473A46284608A92FF0DC
:109F50008CFC78B93D44A4E7D8F83C30012208A92C
:109F60005B6998470422284608A92FF07EFC08B9AF
:109F7000043FDAE74FF0360948460BB0BDE8F08FF2
:109F80004FF06309F8E74FF06F09F5E770260020FE
:109F90002DE9F0410F4616469846044688B060B356
:109FA00090F83450FDB1012126F07BF900210E9B81
:109FB000CDE90511CDE902379DF83C30CDF804809C
:109FC0008DF81C30237C04968BB90D4901AA04F14D
:109FD000080000F0EFFEDDE90553E06B002E08BF3E
:109FE0001D4626F0F7FA284608B0BDE8F081204665
:109FF000044A01ABFFF7FEFDEDE70546F3E700BFBE
:10A0000083050308C19D00082DE9F04F99B00F4664
:10A0100009920A69416C0E931439D31DB3FBF1F315
:10A02000013302EBC302036B04469342C0F00D827E
:10A030000023DFF820940D93E36A484619460793FE
:10A0400000F03CFFD7E9033604930E9B022B4ED160
:10A05000CC2E40F08A81099B002B42D03946204605
:10A0600026F016FB656C079A6B1E13401490ED1AD0
:10A07000E36B01225B6916A97868984716A826F059
:10A080002EFD00280CBF04230823782E06933DD90B
:10A09000012300254FF0080A05933B6805990E98A7
:10A0A000C9F80030C9F8106026F03BFD4FEA9A036A
:10A0B00010930023DDF81CB089F814000B930F9364
:10A0C00008930C93616C4A1E0BEA02028B1A002E55
:10A0D00038D05544AB4240D8236B5B1A13442363FA
:10A0E000ABE0049B1B68149308230693D0E7656CD0
:10A0F000079A6B1E1340782EA5EB030516D8FB7D3F
:10A100007BB9099B002BB3D104230693331DAB42CB
:10A1100010D9A6B1082DBBD804250023AA46059363
:10A12000BBE7099B002BA3D10823EEE7099B002B7B
:10A130009ED1D9E7002505954FF0040AADE7042527
:10A140000596F9E75345C7D3B0460BEB0A030393D3
:10A15000089B002B18BF032313E0A3EB0A039E42C6
:10A16000B0460BEB0A0228BF98469E420392EFD9F5
:10A170000123D9F8102089F81730964271D1C9F817
:10A1800004B0089399F81730002B6CD099F8182078
:10A190000899D31C09EBC3030132C3F804B0A3F838
:10A1A0000880997289F81820B8F1000F14D00E9B1E
:10A1B000022B5BD10B9B7BB90F9B4344032B0BD929
:10A1C000E36B01229B69039814A998470546002870
:10A1D00040F03D8101230B93089B16A80193059B3A
:10A1E000009399F814204346396800F01DFEE36B94
:10A1F00058469B69109A16A99847051E0D9B18BFD3
:10A200005B4652460D9359464346204626F03EF99A
:10A21000236B08F10302A3EB0A0322F003029B1A4B
:10A22000C9F808002363002D40F011810F9BDDF871
:10A230000CB04344A6EB08060F935946204626F07F
:10A24000F8F800258346002E7FF43CAF814A396838
:10A25000936804F10800E36252680E9B00F05CFD15
:10A26000DEE002238DE7C9F804B09DE7099B002BCF
:10A2700030D1049BB8F1030F43440A9327D9DDE999
:10A280000301E36B4FEA98029B6998470546002853
:10A2900065D118F003025FD0049B28F003052B441E
:10A2A0000493039B1D444FF0FF33049915A81593A5
:10A2B0002FF05FFBE36B28469B69012215A99847A5
:10A2C00005460A9B0493002D86D0039B99E74246DE
:10A2D000039DE8E7039B0A9307F120031193FB7D9D
:10A2E00078689BB100233D7E0C9AD9B28D4211D97A
:10A2F000119903F1010C31F83310914226D90699D6
:10A3000007EBC303D8690A44104403E00C9B069A88
:10A3100013441844E36B01225B6915A99847159B08
:10A32000012213930C9B0A9804330C93E36B13A93B
:10A330009B699847039B0A9A43449B1A042B054642
:10A3400007D978B9134604330A93C8E76346521A0B
:10A35000CBE70A9B0393B6E70A9B04933CE70A9B6F
:10A360000493B2E70A9B0393AFE7702604F1080356
:10A3700003932368079A606CA2EB030ABAFBF0FA16
:10A3800000FB0A3026F065FCE16A8046204626F094
:10A3900050F8A26A82424AD0626CD9F80830511E45
:10A3A0000B40216B2568891A0B4423630D9BE062E7
:10A3B0005D1BB5FBF2F5AA4536D1079BB3EB080A46
:10A3C00012D0E36B4FEA9A0241469B699847834655
:10A3D000E36A079A5344E362236B03989B1A43444E
:10A3E000236326F08AFADA462368616CE06B01FB8E
:10A3F000053126F0A3FB204625F05EFF204626F01F
:10A400005BF82063BAF1000F11D03A69616CD31D7B
:10A410001439B3FBF1F3013302EBC3029042A8D22B
:10A42000304619B0BDE8F08F4FF0000ADCE73A691A
:10A43000616CD31D1439B3FBF1F3013302EBC3029A
:10A44000236B9342BFF4F8ADEAE71C26E8E72E46FB
:10A450008CE700BF182600202DE9F3471E4643690C
:10A460000446B342884617469DF828903DD3002500
:10A470008DF80750204625F0EBFED4F830A0824539
:10A480000AD2236AB5EB430F06D2002220460DF113
:10A490000701FFF7EBFB30B39DF80730012B05D127
:10A4A000002220460DF10701FFF7E0FBB9F1030F91
:10A4B00006D03146204625F0B6FE256B854218D3DE
:10A4C0000D4D4FF0FF31284600F0F8FC4B460022BE
:10A4D00029462046C5E90376C5F8008002B0BDE8EC
:10A4E000F047FFF791BD0135C4E7622002B0BDE837
:10A4F000F0871C20FAE700BF44260020032A2DE93C
:10A50000F34106460D4617461C4606D1237A012B19
:10A5100023D0012002B0BDE8F081DFF86080096837
:10A5200042460DF10703FFF7BBFA60600028EDD14A
:10A530009DF80720237A032AE8D0D8F804106A6827
:10A540009142E3D1012B2969D4F80CC007D172697B
:10A550000CEB0103934202D92074207CDAE7083126
:10A560006144E1603B46012229463046FFF74CFD3D
:10A5700060600028CAD00020CCE700BF442600203D
:10A580002DE9F341089C032A1746266806D1237A51
:10A59000012B24D0012002B0BDE8F081DFF89080CB
:10A5A000304642460DF10703FFF77AFA6060002853
:10A5B000EDD12568D8F80400A96AD5F844C0484010
:10A5C000CCF100031840227AE1D1012A09D1E268D6
:10A5D000D8F8103013447269934202D92074207C59
:10A5E000D9E72868EB6A1B1A081AB3FBFCF3B0FB27
:10A5F000FCF083420BD1706CF36A421E1340326B45
:10A60000121A13442846336325F013FFE862D8F882
:10A610001020E36808321344E36001223B460449FA
:10A620002068FFF7F1FC60600028B0D00020B2E79E
:10A63000442600202DE9F04F4FF0FF334FF6FF7214
:10A640000025044600F10806C0E909238BB0C36267
:10A650000562056330460F4626F04FF9204625F087
:10A660002BFE20BB2046394625F0A6FE204625F0CD
:10A6700023FE20BB5E200BB0BDE8F08FE26B2368A9
:10A68000606CD2F814C000FB0530052205A9E04734
:10A6900005A826F0AEFA012828D12946204625F043
:10A6A0005CFE421C2946204625F025FE0135E36963
:10A6B0009D42E3D3204625F0FFFD0028D2D000259F
:10A6C0004FF0FF394FF6FF73CA46A846C4E9085356
:10A6D000E369984514D3A5EB0905012D36D84FF64B
:10A6E000FF72636A934246D16720C4E726F0ABFA53
:10A6F0000028DBD02946204625F02FFE0246D1E770
:10A700002368E26B606C576900FB0830052205A9DD
:10A71000B84705A826F06DFA834605A826F040FA4A
:10A720000746584626F08AFA68B1574538BFC4F83C
:10A730002480B94528BFB946BD4238BF3D46BA4618
:10A74000236A0133236208F10108C1E74FF6FF7362
:10A7500000256362E3699D42C1D2676C2068E36BA8
:10A76000052207FB05005B6905A9984705A826F0A7
:10A7700017FA0135EEE7E26B676C2068694607FB64
:10A78000030055690522A847684626F009FA626A5F
:10A790002368606C504D00FB023026F05AFA4FF0EF
:10A7A000FF33A062E3622A466FF00101204605AB49
:10A7B000FFF776F900284FD1AD6829462046E562BB
:10A7C00025F056FD206320B92046E16A25F031FED0
:10A7D000E0622946204625F02CFE0546A36A9D42EC
:10A7E0003CD16569626CE91C143AB1FBF2F14FF09F
:10A7F000000805EBC1050335B5FBF2F5C14602358E
:10A80000E36999453CD3A8455AD22046616A25F0B0
:10A8100083FD0027064604F1400AB84512D8626C51
:10A820002368694602FB0639E36B05225B694846EB
:10A830009847684626F0B4F9534602464946E06B0D
:10A8400026F009FA3146204625F066FD0137AF4271
:10A850000646E2D364200EE7A56AAEE72946204605
:10A8600025F006FD236B2946034407462363204653
:10A8700025F0DFFD0546002FB0D1C4E90B07ADE799
:10A88000636C2768052203FB0977E36B05A95B6905
:10A890003846984705A826F0ACF926F0CFF960B104
:10A8A000384626F0D6F90146204625F0E1FC636CD7
:10A8B000143B984208BF08F1010809F101099FE71C
:10A8C000304626F01AF8002320461946034AFFF7BF
:10A8D00091F90020CFE600BF442600201F050308A1
:10A8E0000023624A2DE9F04117680E4604461360C2
:10A8F00018B921252846BDE8F08190F834500DB3F1
:10A9000009680268914240F0A980716842689142EA
:10A9100040F0A480B1688268914240F09F80F16865
:10A92000C268914240F09A8031694269914240F098
:10A930009580B169C26B914240F0908072691D466A
:10A940008261D7E750222946D0F8388024F0AFFE44
:10A95000D6E90212336804F1080023607368C4F872
:10A9600038806360336963617369A36125F0D7FF41
:10A97000B36904F14000E3639B68984794F843206F
:10A9800020B1E561002AB4D05B25B3E7656C002DEA
:10A99000F7D06668B6FBF5F3E361002AA9D0B542AB
:10A9A000F2D82268B2FBF5F105FB1122002A57D13B
:10A9B00005FB1363002B53D1204625F049FCA36906
:10A9C000043303449E424DD340F634726369CC3B5A
:10A9D000934249D8B5F5805FD6D30321204625F0B0
:10A9E00060FCD4E90001E36B1B6898470546E36B04
:10A9F0000220DB6898471DB1002384F834301DE045
:10AA000039462046FFF716FE6428054604D139462C
:10AA10002046FFF70FFE0546636C143B002DEBD17B
:10AA2000226A204602FB03F625F012FCA3690433D8
:10AA300003449E4206D284F834505A25E06B25F038
:10AA4000C9FD57E70123D4E90001094A84F83430ED
:10AA500013680133136025F0FCFFEFE75D2549E73C
:10AA6000592547E75A2545E75F2543E7C8220020D7
:10AA7000C422002008B578B190F8343073B10023B7
:10AA8000074A80F834301368013B136013B9C36B75
:10AA90005B689847002008BD2120FCE71120FAE7F9
:10AAA000C42200202DE9FF410F4690461E46054670
:10AAB00098B390F8343093B3B1F5801F31D21A4C6B
:10AAC000022125F0EEFB2246394628460DF10F0300
:10AAD000FEF7E6FF024678B101234246009339466D
:10AAE00033462846FFF7B8FC0446E86B25F072FDB4
:10AAF000204604B0BDE8F0819DF80F30012BEBD16A
:10AB00002169B142E8D10093414633462846FFF718
:10AB10008DF904460028DFD1E7E72124E8E7112476
:10AB2000E6E72924E4E700BF702600202DE9FF4175
:10AB30000C4616461F46054680B390F834307BB36A
:10AB4000B1F5801F2ED2DFF86080012125F0A9FB2E
:10AB50002146424628460DF10F03FEF7A1FF0446A9
:10AB600070B99DF80F30012B11D1D8F81030BB42CD
:10AB700012D10246009031462846FFF757F90446A5
:10AB8000E86B25F027FD204604B0BDE8F081022BDC
:10AB900014BF2D246024F3E76324F1E72124F2E7B6
:10ABA0001124F0E72924EEE7702600202DE9F04378
:10ABB00085B00C4617461E460546DDF8308098B332
:10ABC00090F8343093B3B1F5801F31D2DFF8649040
:10ABD000012125F066FB21464A4628460DF10F0368
:10ABE000FEF75EFF044688B99DF80F30012B14D1A3
:10ABF000D9F8102006EB08039A4213D3009043467D
:10AC0000324639462846FFF711F90446E86B25F02D
:10AC1000E1FC204605B0BDE8F083022B14BF2D24D3
:10AC20006024F3E76324F1E72124F2E71124F0E73D
:10AC30002924EEE7702600202DE9F3411F4600236A
:10AC40000C46164605463B6050B390F834304BB383
:10AC5000B1F5801F28D2DFF85480012125F021FBB7
:10AC60002146424628460DF10703FEF719FF044628
:10AC7000A0B99DF80730032B10D0022B0AD1012375
:10AC8000336004233B60E86B25F0A4FC204602B04F
:10AC9000BDE8F081D8F810303060F3E72D24F2E7FA
:10ACA0002124F3E71124F1E72924EFE7702600209F
:10ACB00030B50C46054685B028B390F8343023B340
:10ACC000B1F5801F23D2022125F0EBFA0DF10F031D
:10ACD000214628460F4AFEF7E3FE034688B99DF851
:10ACE0000F20032A0DD00322214600920246284657
:10ACF000FFF7B2FB0446E86B25F06CFC204605B07C
:10AD000030BD2D24F7E72124F8E71124F6E72924A4
:10AD1000F4E700BF702600202DE9F043466886B3B3
:10AD2000056898464FF0000CA946AE4655F83C40E1
:10AD30000CF1010CC4F31307013401D0B94217D050
:10AD400066450EF1080EF1D12F46002403E0A6421D
:10AD500007F1080712D055F8343001340133F6D129
:10AD6000C1F3130141EA0851C7E90012BDE8F083BD
:10AD700041EA0851CEE90012BDE8F083B8F1030FB3
:10AD800003D101230372BDE8F083002303E09E4258
:10AD900009F10809F5D055F833400133C4F30754DD
:10ADA000032CF4D1C1F3130343EA0853C9E9003279
:10ADB000BDE8F0832DE9F0410646406882B0C0B19D
:10ADC0000F4690460024336853F8345003EBC40315
:10ADD000C5F30752C5F31301013504F1010406D090
:10ADE0005B683046CDF80080B84710B17068844287
:10ADF000E9D302B0BDE8F081024B1968024B186834
:10AE0000FFF76EBDD4B20020F4B2002008B531F0D7
:10AE100046FB014B186008BD9C260020014B1868BA
:10AE200031F038BB9C26002073B504462248012A25
:10AE300000EAC1119DF8185023F07C4007D9961EF6
:10AE4000012E28D9073303F07F03194308E09DF84A
:10AE50001C300A43DB0603F0C053134343F0604148
:10AE60000023C4E900108DF80730B5B12022214637
:10AE70000DF1070025F009FF1A220DF10700211D31
:10AE800025F003FF082063689DF8072043EA8263EA
:10AE9000636002B070BD1143E2E71B220DF10700B1
:10AEA000214625F0F2FE23689DF80720042043EA9E
:10AEB000C2632360EDE700BF80FFFF0738B5094B91
:10AEC0000D461A680021044624F0F1FB00234FF0E0
:10AED000FF322383C4E900252361A260E382A376C5
:10AEE00038BD00BF70DF03080138C0B205289ABF23
:10AEF000014B185C0120704775DF03082DE9F04114
:10AF00000746154600240E46596888B0490A0129AB
:10AF100022464FEA510104F10104F8D8DC7899780F
:10AF200024031B88C90201F4006104F480540C431B
:10AF3000C3F30A035203234492B24FF000089C1853
:10AF4000274B6FEA0444039325F07843ED4302A9AD
:10AF50000DF107001B2202938DF8078025F095FE66
:10AF60009DF80720029B02A943EAC2630DF1070086
:10AF70001B2225F07845049302958DF8078025F073
:10AF800084FE9DF80720029B6FEA144443EAC263E3
:10AF900005934FF0FF330794069307A9BB6901227D
:10AFA00006F110009847BB6905A90446012206F185
:10AFB00008009847BB69404518BF044604A9012210
:10AFC000301D98470122404518BF0446BB693046F2
:10AFD00003A99847404508BF204608B0BDE8F08166
:10AFE00001009AB2034B5A6812B19A6A002AFAD148
:10AFF000704700BF0040065043681249B3FA83F31C
:10B0000010B5C3F11F044B680BB1FFF7EBFF012232
:10B010000D4B5A604B689B07FCD4027A437843EA95
:10B02000420343EA04130124427A8B60837A43EAA1
:10B0300042034B62054B5C60037813B1FFF7D2FF0C
:10B04000CC6010BD00400650006006500050065015
:10B05000044B9A6AD006FCD419639A6AD206FCD4CF
:10B06000704700BF00400650014B186B704700BF8F
:10B070000040065008B5FFF7B5FF02230449CB6036
:10B0800000230B62FFF7AEFF0123CB6008BD00BFBA
:10B0900000400650044BD3F88420D206FBD4D3F8EA
:10B0A0008400C0F3811070470040005038B5174B42
:10B0B0000546D3F828310C4603F00703013B052B66
:10B0C00020D8DFE803F003131B0F0B172EF0EAFD67
:10B0D000052305B1286004B1236038BD2EF0E2FDE0
:10B0E0000623F6E72EF01EFE0723F2E72EF014FEED
:10B0F0000323EEE72EF010FE0423EAE72EF008FE0D
:10B100000223E6E700231846E3E700BF0080005073
:10B11000002337B50193164B0546D3F820320C4671
:10B1200003F00703042B21D8DFE803F0030B11160B
:10B130001B0001230DB1019A2A6004B1236003B002
:10B1400030BD002101A8FFF7B1FF1123F2E72EF077
:10B15000E9FD07230190EDE731F096F90A2301900C
:10B16000E8E72EF027FE09230190E3E70023E1E75B
:10B170000080005038B5104B0546D3F850320C46CD
:10B1800003F00303022B12D0032B08D0012B0AD0AB
:10B190000023184605B1286004B1236038BD31F0A2
:10B1A00076F90B23F6E731F06FF90A23F2E72EF078
:10B1B00001FE0923EEE700BF0080005038B5104BB8
:10B1C0000546D3F800310C4603F00303022B0BD0E5
:10B1D000032B0DD0012B0FD12EF09EFD032305B1C3
:10B1E000286004B1236038BD2EF0E4FD0923F6E7A2
:10B1F00031F048F90823F2E701230020EFE700BF10
:10B200000080005038B5184B0546D3F820010C4695
:10B2100000F00700062823D8DFE800F0040A0E1625
:10B22000121A1E00012305B1286004B1236038BD45
:10B230002EF038FD0523F6E72EF06EFD0323F2E72E
:10B240002EF070FD0723EEE72EF062FD0223EAE701
:10B250002EF028FD0623E6E72EF05EFD0423E2E74C
:10B2600000231846DFE700BF0080005038B5104BC0
:10B270000546D3F840310C4603F00303022B0BD0F4
:10B28000032B0DD0012B0FD131F0FEF80A2305B1AD
:10B29000286004B1236038BD2EF08CFD0923F6E749
:10B2A00031F0F5F80B23F2E701230020EFE700BFB0
:10B2B00000800050002337B50193164B0546D3F8A4
:10B2C00060320C4603F00703013B032B1FD8DFE875
:10B2D00003F0020E1914002101A8FFF793FF0F23BA
:10B2E0000DB1019A2A6004B1236003B030BD002182
:10B2F00001A8FFF7BBFF1023F2E72EF013FD072391
:10B300000190EDE72EF004FD02230190E8E7002311
:10B31000E6E700BF0080005038B5104B0546D3F873
:10B3200060310C4603F00303022B0BD0032B0DD02E
:10B33000012B0FD131F0A8F80A2305B1286004B120
:10B34000236038BD2EF036FD0923F6E731F09FF873
:10B350000B23F2E701230020EFE700BF008000503D
:10B3600073B50D460021114B0191D3F8804106467B
:10B3700004F00304022C13D0032C0CD0012C13D1A5
:10B3800001A8FFF73FFF0F240EB1019B336005B109
:10B390002C6002B070BD2EF0C5FC07240190F3E7CD
:10B3A0002EF0B6FC0190EFE70C46EDE70080005070
:10B3B00038B5104B0546D3F840320C4603F0030372
:10B3C000022B0BD0032B0DD0012B0FD131F05CF8E9
:10B3D0000A2305B1286004B1236038BD2EF0EAFCD1
:10B3E0000923F6E731F053F80B23F2E7012300209D
:10B3F000EFE700BF0080005038B5144B0546D3F886
:10B4000000020C4600F0070004281BD8DFE800F01B
:10B4100003090D111500012305B1286004B1236053
:10B4200038BD31F031F80A23F6E72EF0C3FC0923CA
:10B43000F2E731F02CF80B23EEE72EF053FC0E234D
:10B44000800AE9E700231846E6E700BF00800050C5
:10B4500038B5144B0546D3F808020C4600F0070037
:10B4600004281BD8DFE800F003090D1115000123A3
:10B4700005B1286004B1236038BD31F005F80A2316
:10B48000F6E72EF097FC0923F2E731F000F80B23E2
:10B49000EEE72EF027FC0E23800AE9E7002318468A
:10B4A000E6E700BF00800050B0F5207F1FD009D82C
:10B4B000B0F5007F15D003D868B1B0F5C07F0AD0D1
:10B4C00000200CE0B0F5607FFAD10B4BD3F8800080
:10B4D000C0F3011003E0084B186FC0F303300130D4
:10B4E0007047054BD3F89000C0F30460F7E7024BB8
:10B4F000186FC0F38020F2E70080005002464FF43E
:10B500008030104B10B598660020FFF7CDFF5043F8
:10B5100041F671320C4BDC69DA635A6804F480340A
:10B5200022F4401259B90949884294BF00200120F1
:10B53000000502435A600CB10022DA6310BD0449D1
:10B54000F2E700BF0090005000000350005A620272
:10B55000002D3101430905D0012B0CD0022B084BE3
:10B5600018BF002300F01F0039B103F580530122FA
:10B5700082401A607047034BF4E703F50053F6E787
:10B5800068800050648000501FB50021B0F5807FB6
:10B590000446019100F000816BD8002800F0DF80A4
:10B5A000A0F12004602C74D8602C72D8DFE814F06D
:10B5B000D700DA00D700DA00EA00EA00EA00EA0081
:10B5C000EA00DA00EF007A009D0005017A00DA0057
:10B5D000DA00DA0071007100710071007100710011
:10B5E00071009D00DA00DA00DA002F010F01DA00A5
:10B5F00071007100710071007100710071007100C3
:10B6000071007100710071001401EA00D700D700C9
:10B61000D7000A017A007A001901BA008F00CE0023
:10B62000CE00710071007100710071007100710035
:10B630007100710071007100710071007100710082
:10B640007100710071007100710071007100710072
:10B650007100710071007100710071007100710062
:10B660007100710071007100710071007100710052
:10B67000D300B0F5F06F00F0CA803BD8B0F5607F22
:10B680007BD01AD8B0F5007F77D005D8B0F5C07F51
:10B6900065D0019804B010BDB0F5207F62D0B0F540
:10B6A000407FF6D12EF01EFB02464FF42070FFF7CC
:10B6B000FBFEB2FBF0F252085DE0B0F5B06F66D071
:10B6C0000AD8B0F5806F5DD0B0F5A06FE1D1002150
:10B6D00001A8FFF71DFDDCE7B0F5D06F6DD0B0F528
:10B6E000E06F74D0B0F5C06FD3D1002101A8FFF78F
:10B6F000BDFDCEE7B0F5206F73D00CD8B0F5106F5C
:10B7000060D0B0F5186F67D0B0F5086FC1D101A84F
:10B71000FFF754FDBDE7B0F5306F67D010D8B0F536
:10B72000286FB6D100213C4B0391D3F8703203F05F
:10B730000303012B02D103A8FFF798FD039B35E01B
:10B74000B0F5386FD1D0B0F5406FA2D1002101A87B
:10B75000FFF7ACFC9DE72EF0ABFA019099E72EF0D5
:10B76000C1FAFAE72EF0BEFA02464FF42070FFF756
:10B770009BFEB2FBF0F201928BE72EF099FA0246A3
:10B780002046F4E7002101A8FFF73CFD81E70021F6
:10B7900001A8FFF7E5FD7CE74FF0E02302911B696C
:10B7A0005B0705D52EF09EFA0290029B019370E78D
:10B7B00003A902A8FFF75AFDF7E7002101A8FFF748
:10B7C0001BFE66E7002101A8FFF742FE61E70021AA
:10B7D00001A8FFF7EDFD5CE7002101A8FFF7CAFC17
:10B7E00057E7002101A8FFF765FD52E70A4BD3F8A0
:10B7F000903203F00303012B04D0022B05D12EF06D
:10B8000091FAAAE72EF084FAA7E70846A5E70021F7
:10B8100001A8FFF781FD3CE70080005008B58020BB
:10B82000FFF7B2FE034B98429EBF4FF48032024BAB
:10B830001A6708BD005A620200A000501FB50346F7
:10B840000020B3F5807F019000F0D18077D8582B8D
:10B8500068D8382B06D8243B092B49D9019805B064
:10B860005DF804FB393B1F2BF8D801A252F823F0F6
:10B8700011BA00085DB800085DB800085DB800089E
:10B880001BBA000837BA00085DB800085DB80008A8
:10B890005DB800085DB800085DB800085DB8000834
:10B8A0005DB800085DB800085DB800085DB8000824
:10B8B0005DB800085DB800085DB8000841BA00082E
:10B8C00063B900085DB800085DB800085DB80008FD
:10B8D000A7B900085DB800085DB800084BBA0008B9
:10B8E00055BA00082DBA0008C9B90008C9B900083E
:10B8F000092BB3D801A252F823F000BF63B90008A6
:10B9000063B9000863B9000863B9000863B90008A7
:10B910005DB80008E5B900085DB8000811BA000874
:10B9200081B90008802B99D15C4B1B6F03F0070392
:10B93000013B032B92D8DFE803F0534C4F51B3F592
:10B94000086F6FD021D8B3F5C06F61D00ED8B3F5B2
:10B95000A06F6BD0B3F5B06F44D0B3F5806F7FF4B8
:10B960007DAF002001A9FFF74DFC77E7B3F5E06F4D
:10B9700061D0B3F5F06F50D0B3F5D06F7FF46EAFF8
:10B98000002001A9FFF738FD68E7B3F5286F61D003
:10B990000ED8B3F5186F53D0B3F5206F55D0B3F56B
:10B9A000106F7FF45BAF002001A9FFF751FD55E751
:10B9B000B3F5306F60D0FFF451AFB3F5386F27D0D7
:10B9C000B3F5406F7FF44AAF002001A9FFF76EFB8B
:10B9D00044E70523019341E70323FBE70823F9E745
:10B9E0000223F7E7002001A9FFF7BAFC36E74FF082
:10B9F000E02302901B695B0705D52EF073F90C2339
:10BA00000393039BE6E703A902A8FFF72FFCF8E7DF
:10BA1000002001A9FFF72AFC20E7002001A9FFF779
:10BA20007BFC1BE701A9FFF7C9FB17E7002001A971
:10BA3000FFF76EFB12E7002001A9FFF7B9FC0DE745
:10BA4000002001A9FFF796FB08E7002001A9FFF7F6
:10BA500031FC03E7114BD3F8703203F00303012BE1
:10BA600004D0022B0CBF14230023B3E7002103A84A
:10BA7000FFF7FCFB1023ADE7084BD3F8903203F03F
:10BA80000303012B06D0022B02D12EF04BF9072025
:10BA90000190E3E62EF03CF90220F9E70080005027
:10BAA0004FF48012034B5A664FF48032024B9A6275
:10BAB000704700BF009000500050005AF8B504468F
:10BAC0008020FFF7BBFE032800F08A804FF480122D
:10BAD000564B574D5A6645F60E034FF0A062C5F817
